:1000000012C02CC02BC02AC029C028C027C026C0BF
:1000100025C024C023C090C221C03CC01FC01EC048
:100020001DC01CC01BC011241FBECFE5D4E0DEBF25
:10003000CDBF10E0A0E6B0E0E8E2F6E002C0059037
:100040000D92AE38B107D9F710E0AEE8B0E001C0CC
:100050001D92A43FB107E1F706D0E4C2D1CFBBD2D5
:10006000C5D2C8D2089580ED97E028EC30E0F901C0
:100070003197F1F70197D9F7F2DF16D080ED97E0CD
:1000800028EC30E0F9013197F1F70197D9F780EDCD
:1000900097E0F8CF1F920F920FB60F9211240F9096
:1000A0000FBE0F901F90189510928F0010928E0027
:1000B00082E090E060E670E0A9D2789480918E00B2
:1000C00090918F000B9764F083E190E063E670E01D
:1000D0009DD28DE093D210928F0010928E00EECFC1
:1000E000FFCF8CD20895CF92DF92EF92FF920F93C1
:1000F0001F93DF93CF93CDB7DEB72F970FB6F8944A
:10010000DEBF0FBECDBF8CE090E067E770E07ED22F
:100110008DE074D288EE93E028EC30E0F90131975D
:10012000F1F70197D9F788EE93E028EC30E0F90178
:100130003197F1F70197D9F788EE93E028EC30E09A
:10014000F9013197F1F70197D9F788EE93E028ECA0
:1001500030E0F9013197F1F70197D9F788EE93E094
:1001600028EC30E0F9013197F1F70197D9F788EEE3
:1001700093E028EC30E0F9013197F1F70197D9F7D6
:1001800088EE93E028EC30E0F9013197F1F7019720
:10019000D9F788EE93E028EC30E0F9013197F1F7D8
:1001A0000197D9F788EE93E028EC30E0F901319718
:1001B000F1F70197D9F788EE93E028EC30E0F901E8
:1001C0003197F1F70197D9F788EE93E028EC30E00A
:1001D000F9013197F1F70197D9F788EE93E028EC10
:1001E00030E0F9013197F1F70197D9F783E090E01A
:1001F00064E870E00BD210E026E0C22ED12CCC0EC9
:10020000DD1E95E0E92EF12CEC0EFD1EFBD1F60172
:10021000E10FF11D80831F5FF701E10FF11D808168
:100220008D30A1F7DE808FE4D81609F58F818B34ED
:10023000F1F480E49CE90197F1F784E090E068E84C
:1002400070E0E4D18DE0DAD18E010F5F1F4F85E0C1
:10025000E82EF12CEC0EFD1ED5D1F80181938F0113
:10026000EE15FF05C9F780E49CE90197F1F788E8EE
:1002700093E128EC30E0F9013197F1F70197D9F7D4
:1002800088E893E128EC30E0F9013197F1F7019724
:10029000D9F788E893E128EC30E0F9013197F1F7DC
:1002A0000197D9F788E893E128EC30E0F90131971C
:1002B000F1F70197D9F788E893E128EC30E0F901EC
:1002C0003197F1F70197D9F788E893E128EC30E00E
:1002D000F9013197F1F70197D9F788E893E128EC14
:1002E00030E0F9013197F1F70197D9F788E893E108
:1002F00028EC30E0F9013197F1F70197D9F788E858
:1003000093E128EC30E0F9013197F1F70197D9F743
:1003100088E893E128EC30E0F9013197F1F7019793
:10032000D9F788E893E128EC30E0F9013197F1F74B
:100330000197D9F788E893E128EC30E0F90131978B
:10034000F1F70197D9F788E893E128EC30E0F9015B
:100350003197F1F70197D9F788E893E128EC30E07D
:10036000F9013197F1F70197D9F788E893E128EC83
:1003700030E0F9013197F1F70197D9F788E893E177
:1003800028EC30E0F9013197F1F70197D9F788E8C7
:1003900093E128EC30E0F9013197F1F70197D9F7B3
:1003A00088E893E128EC30E0F9013197F1F7019703
:1003B000D9F788E893E128EC30E0F9013197F1F7BB
:1003C0000197D9F788E893E128EC30E0F9013197FB
:1003D000F1F70197D9F788E893E128EC30E0F901CB
:1003E0003197F1F70197D9F788E893E128EC30E0ED
:1003F000F9013197F1F70197D9F788E893E128ECF3
:1004000030E0F9013197F1F70197D9F788E893E1E6
:1004100028EC30E0F9013197F1F70197D9F788E836
:1004200093E128EC30E0F9013197F1F70197D9F722
:1004300088E893E128EC30E0F9013197F1F7019772
:10044000D9F788E893E128EC30E0F9013197F1F72A
:100450000197D9F788E893E128EC30E0F90131976A
:10046000F1F70197D9F788E893E128EC30E0F9013A
:100470003197F1F70197D9F788E893E128EC30E05C
:10048000F9013197F1F70197D9F788E893E128EC62
:1004900030E0F9013197F1F70197D9F788E893E156
:1004A00028EC30E0F9013197F1F70197D9F788E8A6
:1004B00093E128EC30E0F9013197F1F70197D9F792
:1004C00088E893E128EC30E0F9013197F1F70197E2
:1004D000D9F788E893E128EC30E0F9013197F1F79A
:1004E0000197D9F788E893E128EC30E0F9013197DA
:1004F000F1F70197D9F780E381D08DE07FD08D2D82
:100500007DD08F817BD0888579D0898177D08A8191
:1005100075D08B8173D08C8171D02F960FB6F894E3
:10052000DEBF0FBECDBFCF91DF911F910F91FF9026
:10053000EF90DF90CF9008951F920F920FB60F9219
:1005400011240F931F932F933F934F935F936F93B8
:100550007F938F939F93AF93BF93EF93FF930091FC
:100560008E0010918F004ED0F801E057FF4F80832E
:100570000F5F1F4F10938F0000938E0001571F4F86
:10058000F80180818D30A1F400E005C0E057FF4FF5
:10059000808134D00F5FE02FF0E080918E00909149
:1005A0008F00E817F90794F310928F0010928E00D5
:1005B000FF91EF91BF91AF919F918F917F916F913B
:1005C0005F914F913F912F911F910F910F900FBE0F
:1005D0000F901F90189580E28BB91AB886E080BD05
:1005E00083E389B910BC569A579A0895539A08958F
:1005F00053980895549A0895549808955D9BFECF9A
:100600008CB908955F9BFECF8CB10895FB0106C0A5
:1006100020815D9BFECF31962CB9019718161906E3
:08062000BCF30895F894FFCF2C
:100628004F4B004F6B206C696E6561732072656378
:1006380069626964617300537461727420436F6EF8
:0E064800666967002B2B2B0061747672000030
:00000001FF
