:1000000012C019C018C017C016C015C014C013C044
:1000100012C011C010C00FC00EC00DC00CC00BC06C
:100020000AC009C008C011241FBECFE5D4E0DEBF5E
:10003000CDBF02D030C0E4CF80E49CE90197F1F756
:1000400080E090E00895089580E28BB91AB886E0C8
:1000500080BD83E389B910BC569A579A0895539A84
:10006000089553980895549A0895549808955D9B5F
:10007000FECF8CB908955F9BFECF8CB10895FB0134
:1000800006C020815D9BFECF31962CB901971816D2
:0A0090001906BCF30895F894FFCFA1
:00000001FF
