:100000000C9438000C944A000C944A000C944A005A
:100010000C944A000C944A000C944A000C944A0038
:100020000C944A000C944A000C944A000C944A0028
:100030000C944A000C944A000C944A000C944A0018
:100040000C944A000C944A000C944A000C944A0008
:100050000C9461000C944A000C944A000C944A00E1
:100060000C944A000C944A000C944A000C944A00E8
:1000700011241FBECFEFD0E1DEBFCDBF11E0A0E065
:10008000B1E001C01D92A836B107E1F70E9450000F
:100090000C9426010C9400000E94B20078940895FC
:1000A00080ED97E028EC30E0F9013197F1F7019706
:1000B000D9F70E944C000E94EB0088E70E94D20012
:1000C000FCCF1F920F920FB60F9211248F939F9324
:1000D000EF93FF9380910001882319F08130B9F5E7
:1000E0001DC080913501E82FF0E09091C600EE5FD1
:1000F000FE4F90838F5F80933501E0913501F0E0F2
:10010000EF5FFE4F80818D3021F580913401816059
:100110008093340181E0809300011BC08091010134
:10012000E82FF0E09091C600EA5CFE4F90838F5F6D
:1001300080930101E0910101F0E0EB5CFE4F8081D2
:100140008D3039F4809134018260809334011092B3
:100150000001FF91EF919F918F910F900FBE0F9033
:100160001F90189580E28093C000E1ECF0E01082CF
:1001700086E08093C20083E38093C4001092C500A0
:100180008081808380818068808380818860808393
:10019000808180618083109235011092010110925C
:1001A00034010895982F8091C00085FFFCCF909373
:1001B000C60008959C01FB010AC090818091C00097
:1001C00085FFFCCF31969093C60021503040121627
:1001D00013069CF30895809134018130C9F490E0B6
:1001E0000CC0E92FF0E0EE5FFE4FE0818091C0008F
:1001F00085FFFCCFE093C6009F5F80913501981783
:1002000080F3809134018E7F809334011092350108
:10021000809134018230F9F690E00CC0E92FF0E0D3
:10022000EA5CFE4FE0818091C00085FFFCCFE09347
:10023000C6009F5F80910101981780F3809134017F
:100240008D7F8093340110920101C5CFF894FFCFC8
:00000001FF
