:1000000012C024C023C022C021C020C01FC01EC0F7
:100010001DC01CC01BC020C019C018C017C016C00E
:1000200015C014C013C011241FBECFE5D4E0DEBF3D
:10003000CDBF10E0A0E6B0E0EAE3F1E002C0059039
:100040000D92A836B107D9F72BD075C0D9CF4AD0B9
:1000500055D058D0789408951F920F920FB60F92F2
:1000600011242F933F934F935F936F937F938F93BD
:100070009F93AF93BF93EF93FF934CD047D0FF91E3
:10008000EF91BF91AF919F918F917F916F915F9110
:100090004F913F912F910F900FBE0F901F90189589
:1000A00020E030E048EC50E0CA010197F1F72F5F03
:1000B0003F4F87E0203D3807B9F714D01FD022D03A
:1000C000789486E090E060E670E028D08DE01ED065
:1000D00020E43CE9C9010197F1F7FCCF7894089539
:1000E00015D0089580E28BB91AB886E080BD83E30D
:1000F00089B910BC8AB18AB9579A0895539A08955C
:1001000053980895549A0895549808955D9BFECF8E
:100110008CB908955F9BFECF8CB10895FB01181632
:10012000190644F421915D9BFECF2CB90197181656
:0A0130001906C4F30895F894FFCFF8
:08013A00496E6963696F000062
:00000001FF
